:060000000A128A110C280F
:10000800FE00030EF1000A08F2000A128A114728BE
:100018000A128A110F28F301F40183010A128A11C6
:100028007028831603178801890183160313850135
:1000380083120313850183160313870183120313A5
:100048008701033083160313860083120313860186
:10005800831603130F088F3940388F000F1481134C
:10006800151495148B178B158B16161496140B10E4
:100078008112011281110115811401149E3083121D
:100088000313810008000B1C4A284B285C288312A4
:10009800031306185028512855280130F00070081D
:1000A800F4078618582859285B280130F4020B10E9
:1000B8000B1D5F28602869280130F0007008F307DD
:1000C8000A128A117F200A128A1172088A00710E98
:1000D8008300FE0E7E0E09000A128A1115200A12EC
:1000E8008A11740883120313850073088700752822
:1000F8000A128A110C289E308312031381000B11F7
:020108000800ED
:08400000FF3FFF3FFF3FFF3FC0
:04400E00D420FF3F7C
:00000001FF
